:020000040800F2
:1000000000000120150700086507000865070008C3
:100010006507000865070008650700080000000084
:10002000000000000000000000000000650700085C
:100030006507000800000000650700086507000864
:1000400065070008650700086507000865070008E0
:1000500065070008650700086507000865070008D0
:1000600065070008650700086507000865070008C0
:1000700065070008650700086507000865070008B0
:100080006507000865070008650200080000000019
:1000900000000000000000000000000065070008EC
:1000A0006507000865070008650700086507000880
:1000B0006507000865070008650700086507000870
:1000C0006507000865070008650700086507000860
:1000D00065070008650700086507000800000000C4
:1000E00065070008650700086507000800000000B4
:1000F000000000000000000000000000650700088C
:100100000000000065070008650700086507000893
:1001100000000000000000000000000000000000DF
:1001200065070008650700086507000865070008FF
:10013000650700080000000000000000000000004B
:10014000000000000000000000000000650700083B
:1001500065070008650700086507000865070008CF
:1001600065070008650700080000000000000000A7
:10017000000000000000000000000000000000007F
:1001800000000000650700080000000000000000FB
:0401900065070008F7
:1001940010B5054C237833B9044B13B10448AFF3BD
:1001A40000800123237010BD000000200000000027
:1001B4006008000808B5034B1BB103490348AFF3BB
:1001C400008008BD00000000040000206008000852
:1001D40000B583B01C4A6B4692E8030083E8030031
:1001E4001A4A01211170184600F050F800F02AF95B
:1001F400174800F097F9002000F098F8002300E079
:10020400013342F20F729342FADD04E0114B9B6812
:1002140013F0020F11D0104800F0A4F80F4B18701F
:100224000028F3D10E2100F089F90B4B188800F057
:100234009CF90A4B01221A70E8E7064A936843F0D6
:1002440080439360E7E700BF780800081D000020A2
:100254008008000800200140200000201C0000202D
:1002640008B5034800F07EF8024B187008BD00BFC3
:10027400200000201C000020034AD2F8883043F4F8
:100284007003C2F88830704700ED00E0214B1A6B10
:1002940042F001021A63204A116841F00101116021
:1002A400116841F0020111605A6C42F480725A6480
:1002B4001A4A136843F480231360194B9A6842F076
:1002C40001029A6017494A6822F440324A605A6827
:1002D400017842EA01625A60D0ED017AFCEEE77AD5
:1002E40017EE902A10490A709A6822F400629A6004
:1002F400437813B1012B06D07047094A936823F061
:10030400020393607047064A936843F002039360C4
:10031400F2E700BF003802400000024000E100E0C4
:1003240000200140002301401E000020054BD8623C
:1003340058635A6822F020025A609A6842F0804258
:100344009A60704700200140054B1B6813F0020FB0
:1003540002D100230370704701230370704700BF6C
:100364000020014038B505460E4C2046FFF7ECFF4F
:100374002378ABB10C4BDA6C92B240F2EE2303FB60
:1003840002F307EE903AF8EEE77ADFED086A87EEBB
:10039400A67ABCEEC77A17EE103A2B80002038BD3F
:1003A4000120FCE71D0000200020014000F4BF45AF
:1003B40038B50546224C00220121204600F08CF974
:1003C40000221146204600F087F9002300E00133A3
:1003D40041F287329342FADD002300E0013341F217
:1003E40087329342FADD01220221154800F074F9A4
:1003F400002300E0013341F287329342FADD032403
:1004040008E0E31E01229A402A40E1B20C4800F0C1
:1004140063F901340A2CF4DD002300E0013341F2D6
:1004240087329342FADD00220221054800F054F994
:10043400002300E0013341F287329342FADD38BDF4
:100444000004024010B5144C002301221946204632
:1004540000F0DAF8002301221146204600F0D4F817
:10046400002301220221204600F0CEF8032406E0F6
:1004740000230122E1B2084800F0C6F801340A2C36
:10048400F6DD3820FFF794FF0C20FFF791FF0120E1
:10049400FFF78EFF10BD00BF0004024038B50546CB
:1004A4001F4C00220121204600F016F901220021F0
:1004B400204600F011F9002300E0013341F28732B5
:1004C4009342FADD01220221154800F005F90023C8
:1004D40000E0013341F287329342FADD032408E05D
:1004E400E31E01229A402A40E1B20D4800F0F4F8DC
:1004F40001340A2CF4DD002300E0013341F2873299
:100504009342FADD00220221054800F0E5F80023B9
:1005140000E0013341F287329342FADD38BD00BF77
:100524000004024038B50546002403E0FFF7B6FF97
:100534000134E4B2285D0028F8D138BD08B5032899
:1005440004D8DFE800F002090C0F0B4663F07F00CB
:10055400C0B2FFF72DFF08BD01F14003F6E701F13A
:100564001003F3E701F15003F0E700B585B00A2268
:10057400694600F033F96846FFF7D4FF05B05DF82B
:1005840004FB30B405684C000123A3401D4215D080
:1005940005680134012303FA04F4254211D19A4277
:1005A40001D901200BE0446803FA01F524EA0504AB
:1005B40002FA01F121434160184600E0002030BCFA
:1005C40070470020FBE770B40468490001238B40A6
:1005D4001C4211D105684E1C0124B44025420ED1A1
:1005E400022A0ED8C568234325EA030302FA01F15F
:1005F4001943C160012000E0002070BC7047002056
:10060400FBE70120F9E7000070B52C4CA04214D0A0
:100614002B4CA04229D02B4CA0422CD02A4CA042D7
:100624002FD02A4CA04232D0294CA0420AD1294DC5
:100634002C6B44F080042C6304E0264D2C6B44F0B6
:1006440001042C634ABB06684D00012404FA05F238
:1006540026EA0206066006682544AC4026EA04043D
:1006640004601A46FFF7AFFF70BD1A4D2C6B44F0BF
:1006740002042C63E6E7174D2C6B44F004042C634E
:10068400E0E7144D2C6B44F008042C63DAE7114DB9
:100694002C6B44F010042C63D4E702684D00012451
:1006A40004FA05F63243026002682544AC4022EAAB
:1006B400040404601A46FFF764FFD5E70000024013
:1006C4000004024000080240000C024000100240F6
:1006D400001C02400038024030B404684D0001237D
:1006E400AB401C4211D042B94269012303FA01F123
:1006F40022EA01014161184608E04269012303FA34
:1007040001F111434161184600E0002030BC7047FC
:10071400DFF834D00D480E490E4A002302E0D458C5
:10072400C4500433C4188C42F9D30B4A0B4C002335
:1007340001E013600432A242FBD3FFF79DFD00F0F9
:1007440011F8FFF745FD704700000120000000206C
:1007540000000020C0080008000000202400002041
:10076400FEE7000070B50D4E0D4CA41BA41000252F
:10077400A54209D10B4E0C4C00F070F8A41BA41038
:100784000025A54205D170BD56F82530984701359E
:10079400EEE756F8253098470135F2E7B808000827
:1007A400B8080008B8080008BC080008931E222BEB
:1007B40010B50C4604D900230B701C46204610BD0E
:1007C4000A2A09D1002807DA2D230B70404201219F
:1007D400214400F005F8F1E70021F9E7FFF7E6BF4F
:1007E400F0B51D4B8BB005460C466E4603F1200C4C
:1007F40018685968374603C7083363453E46F7D13E
:1008040018681B793B71931E222B38604FF000034C
:1008140004D923701C4620460BB0F0BD661EB5FB00
:10082400F2F00AAF02FB10553D44591C15F8285C40
:1008340006F8015F054668B9605423442246191B33
:10084400101B8142E7DD1178187802F8010B03F8D8
:100854000119F4E70B46E2E790080008F8B500BF79
:10086400F8BC08BC9E467047F8B500BFF8BC08BC8D
:040874009E467047E5
:10087800000100000000A04054656D702076616C96
:100888007565203D2000000030313233343536376D
:1008980038396162636465666768696A6B6C6D6E36
:1008A8006F707172737475767778797A00000000CA
:0408B800B90100087A
:0408BC00950100089A
:0400000508000715D3
:00000001FF
